:020000040800F2
:100000003031002055020008470D0008090D000896
:10001000450D0008090400087918000800000000D8
:10002000000000000000000000000000690100085E
:10003000D10B000800000000F10100084102000897
:100040006F0200086F0200086F0200086F020008CC
:100050006F0200086F0200086F0200086F020008BC
:100060006F020008EF0B00086F0200086F02000823
:10007000310900086F0200085909000885090008C5
:100080006F020008B50900086F0200086F0200083F
:100090000D1800086F0200086F0200086F020008C8
:1000A0006F0200086F0200086F0200086F0200086C
:1000B000E50F00086F020008F50F00086F02000846
:1000C0006F0200086F0200086F0200086F0200084C
:1000D0006F020008091000088D10000811110008B7
:1000E000D30B00086F0200086F020008DFF80CD085
:1000F00000F0F4F800480047211E000830310020CD
:1001000080F309887047EFF309807047684680F3F1
:10011000098804480078C00714BF0220032080F338
:10012000148870473C270008DFF818C0EFF30583F8
:100130001B0618BF6047EFF31483DB0708BF604757
:1001400000DF7047791E0008DFF818C0EFF3058361
:100150001B0618BF6047EFF31483DB0708BF604737
:1001600000DF70473D200008EFF30980816911F836
:10017000021C39BB90E80F10E047EFF3098C194BD4
:1001800093E80600914218D059B10CB44FF0010326
:1001900081F826302CE9F00FC1F82CC002F01CF9D0
:1001A0000CBC1A60D2F82CC0BCE8F00F92F82630D4
:1001B0008CF309881BB192F82500CCF800006FF091
:1001C000020E704710B5084A1268914209D8074CD0
:1001D00054F8214090E80F10A047EFF3098C8CE809
:1001E0000F0010BD44000020400300084003000839
:1001F00001F0DEFF114B93E8060091421BD00CB4D6
:100200004FF0000381F82630EFF3098C2CE9F00F52
:10021000C1F82CC002F0E0F80CBC1A60D2F82CC077
:10022000BCE8F00F8CF3098892F826301BB192F8E5
:100230002530CCF800306FF0020E704744000020EB
:1002400002F0BEF9D6E7000001F014FE02F0B8F9A2
:10025000D0E700000648804706480047FEE7FEE773
:10026000FEE7FEE7FEE7FEE7FEE7FEE7FEE7FEE766
:10027000F50E0008ED0000082DE9F05F05460020AE
:1002800092469B4688460646814640241BE0284607
:1002900041464746224600F042F853465A46C01AA5
:1002A000914110D311461846224600F029F82D1A24
:1002B00067EB01084F4622460120002100F020F89C
:1002C00017EB00094E41201EA4F10104DFDC484673
:1002D00031462A464346BDE8F09F0000064C074DD4
:1002E00006E0E06840F0010394E807009847103406
:1002F000AC42F6D3FFF7FEFE582700087827000827
:10030000202A04DB203A00FA02F1002070479140D5
:10031000C2F1200320FA03F3194390407047202ACA
:1003200004DB203A21FA02F00021704721FA02F39F
:10033000D040C2F1200291400843194670470000A6
:10034000000000006420DFF808C000DFFAE70000CA
:10035000E51F00080023154A15491648DFF858C064
:1003600000DF164C0023164A206016491648DFF8B5
:1003700048C000DF60600023144A15491548DFF8C3
:1003800038C000DFA06000211348DFF850C000DF54
:10039000134C00BF00F0AEF8E06880F40050E0605D
:1003A0004FF4FA70DFF83CC000DFF3E76000002094
:1003B000070008004503000845260008000000204B
:1003C0006010002003000400F903000860140020FE
:1003D00006000800E9030008340000209923000803
:1003E00000100140E51F00080A20DFF808C000DF08
:1003F000FAE70000E51F00081E20DFF808C000DF54
:10040000FAE70000E51F0008FEE7000070B58AB0BB
:100410000121052000F000FD0121480600F0E4FC68
:1004200018208DF81F0003248DF81E404FF48050D3
:100430002E4DADF81C0007A9284600F00EFC482000
:100440008DF81F008DF81E40E814ADF81C0007A9B8
:10045000284600F002FC264E304600F06BF8684655
:1004600000F0E7F9002401258DF806408DF80750CB
:10047000042102208DF802408DF804008DF8085008
:10048000ADF800108DF809408DF805108DF80A4080
:100490008DF803506946304600F0EAF88DF81640B2
:1004A0008DF817408DF81850ADF80C40ADF810409D
:1004B000ADF814408DF81950ADF80E40ADF812406B
:1004C00003A800F055F814208DF820008DF8214085
:1004D0008DF822408DF8235008A800F035FC012249
:1004E0000221304600F0BCF80AB070BD000801409F
:1004F000006400400D4840F2012108220160002103
:10050000017241728272C172012101730221417331
:10051000032181730421C1730521017406214174F3
:10052000072181740146024800F094B9A02C0020F4
:1005300000640040A0F1804110B5B1F5C8414FF012
:10054000010109D0880600F05BFCBDE810400021E5
:100550004FF0806000F054BC4FF0007000F050FC91
:10056000BDE8104000214FF0007000F049BC0000D1
:1005700030B4817A354B012202FA01F11A6842F057
:1005800001021A60DFF8C8C0DCF800208A43CCF80A
:100590000020047B2F4AD4B914688C43146044882B
:1005A000C58844EA0544857AED0005F1804505F5E6
:1005B000C045C5F840460488858844EA0544857AE4
:1005C000ED0005F1804505F5C045C5F84446047BBE
:1005D000012C18D114680C431460847A0268E4007A
:1005E00004F1804404F5C0444FEA3242C4F8402686
:1005F000847A4268E40004F1804404F5C0444FEA80
:100600003242C4F84426C47A134A002C14680CBF42
:100610008C430C4314600489104A14B914688C4349
:1006200014600489012C02D114680C431460407BCF
:10063000012804D1DCF800000843CCF80000186859
:1006400020F00100186030BC7047000000660040D8
:100650001C6600400C6600400466004014660040C2
:10066000002A426914BF114322EA01014161704727
:100670000268002322F002020260026842F00102D6
:1006800002604FF6FF7200BFD0F804C01CF0010FEB
:1006900003D1934218BF5B1CF6D1436813F0010FDE
:1006A0005DD08B79012B03680CBF43F0800323F0EE
:1006B00080030360CB79012B03680CBF43F0400338
:1006C00023F0400303600B7A012B03680CBF43F057
:1006D000200323F0200303604B7A012B03680CBF37
:1006E00043F0100323F0100303608B7A012B03689F
:1006F0000CBF43F0080323F008030360CB7A012BFF
:1007000003680CBF43F0040323F0040303608B78F9
:1007100091F803C04FEA837343EA0C6391F804C075
:1007200043EA0C4391F805C0098843EA0C53A1F150
:10073000010143EA0101C161016821F00101016089
:100740004FF00001436813F0010F1CBF9142491C98
:10075000F8D1406810F0010F04BF012070474FF03E
:100760000000704700EB0113D3F8B0C11CF0040C7B
:1007700082F808C0D3F8B0C107BF4FEA5C5CC2F88A
:1007800000C04FEADC0CC2F804C0D3F8B0C10CF0D2
:10079000020C82F809C0D3F8B4C10CF00F0C82F837
:1007A0000AC0D3F8B4C14FEA1C2C82F813C0D3F8A6
:1007B000B8C182F80BC0D3F8B8C14FEA1C2C82F83C
:1007C0000CC0D3F8B8C14FEA1C4C82F80DC0D3F866
:1007D000B8C14FEA1C6C82F80EC0D3F8BCC182F8D5
:1007E0000FC0D3F8BCC14FEA1C2C82F810C0D3F85C
:1007F000BCC14FEA1C4C82F811C0D3F8BC311B0EAF
:10080000937421B1016941F0200101617047C16811
:1008100041F02001C1607047002140F8041B40F8FE
:10082000041B00F80B1B00F8091900F8011B01F06C
:1008300035B800218171C171017241728172C1723A
:100840008170C17003210171022141710121018078
:100850007047000010B402460020936813F0806FC8
:100860003FD000BF02EB0012D2F8803103F0010349
:10087000C2F880310B7A002B42D0D2F880C14C688C
:100880004CEA030391F809C04CEAC40C43EA0C0398
:10089000C2F880318B7A03F00F038B72D2F8843167
:1008A00023F00F03C2F88431D2F8843191F80AC0E2
:1008B00043EA0C03C2F88431CB7AD1F80CC043EA86
:1008C0000C23C2F88831CB7B096943EA0121C2F8C5
:1008D0008C11D2F8801141F00101C2F8801110BCD6
:1008E0007047906810F0006F18BF0120BAD190686F
:1008F00010F0805F14BF02200420B3D110BC7047F9
:10090000D2F8803191F809C043EA0C03B1F800C075
:1009100043EA4C53BCE70000044A0029516814BF65
:10092000084321EA0000506070470000002004E006
:1009300010B5202000F0FCF8002808BF10BD1020E2
:1009400000F05AF80022BDE810400221014800F0F2
:10095000FFB800001C00024010B54FF4005000F03A
:10096000E7F8002808BF10BD4FF4805000F044F8AD
:100970000022BDE810400221014800F0E9B8000063
:100980004400024010B5084800F0D2F8002808BF23
:1009900010BD064800F030F80022BDE810400221EA
:1009A000034800F0D5B8000000000210000001105C
:1009B0005804024010B54FF0007000F0B9F800285C
:1009C00008BF10BD4FF0807000F016F80022BDE89F
:1009D00010400221014800F0BBB800008000024036
:1009E00010F0805F19BF02490860024948607047F3
:1009F000040402400000024010F0805F19BF024969
:100A00000860024948607047040402400000024048
:100A10000029016812BF41F001014FF6FE7211403A
:100A20000160704701684FF6FE72114001600021BD
:100A3000016041608160C1602E4A2F49904204BF2D
:100A4000486840F00F0022D02C4A904204BF48680A
:100A500040F0F0001BD02A4A904204BF486840F49E
:100A6000706014D0274A904204BF486840F4704038
:100A70000DD0254A904204BF486840F4702006D04B
:100A8000224A904204BF486840F4700001D1486097
:100A900070471F4A904204D1486840F07060486037
:100AA00070471C4A111F904204BF086840F00F00B5
:100AB00014D0194A904204BF086840F0F0000DD0ED
:100AC000164A904204BF086840F4706006D0144A89
:100AD000904204BF086840F4704001D1086070473C
:100AE000104A904218BF7047086840F470200860B0
:100AF0007047000008000240000002401C00024055
:100B00003000024044000240580002406C000240A5
:100B100080000240080402401C04024030040240ED
:100B20004404024058040240406880B2704700000C
:100B3000002110F0805F14BF034A044A1268024289
:100B400018BF01210846704700040240000002401F
:100B5000002A026814BF114322EA010101607047B4
:100B600010B40268D1F820C08B686FF30E1243EA0C
:100B70000C03D1E904C44CEA040C43EA0C03D1F899
:100B800018C043EA0C03D1F81CC043EA0C03D1F8A7
:100B900024C043EA0C03D1F828C043EA0C031A43EB
:100BA0000260CA6842600A6882604968C16010BC1D
:100BB0007047416070470021016041608160C16001
:100BC000016141618161C16101624162816270477D
:100BD000704710B54FF4806000F01CF8002808BF83
:100BE00010BD4FF48060BDE8104000F00DB810B5A6
:100BF000082000F00FF8002808BF10BD0820BDE84D
:100C0000104000F001B80000014908607047000082
:100C100014040140054A00211268054B02401B687C
:100C200003421CBF002A012108467047000401400E
:100C300014040140F8B50E461C461546012100F08B
:100C4000EBF8ADF8005003228DF802208DF8034038
:100C50006946304600F001F8F8BD2DE9F001CB7887
:100C6000002203F00F0C13F0100F1CBF8B7843EA27
:100C70000C0C0B784FF00F0613F0FF0F4FF001052F
:100C800018BF046819D00F8805FA02F31F409F426D
:100C90000FD1970006FA07F824EA08040CFA07F7C0
:100CA0003C43CF78282F08BF436102D0482F08BFAC
:100CB0000361521C082AE6D304600A88FF2A87BF12
:100CC00044680022BDE8F001704702F108030F8874
:100CD00005FA03F31F409F420FD1970006FA07F869
:100CE00024EA08040CFA07F73C43CF78282F08BF02
:100CF0004361CF78482F08BF0361521C082AE4D310
:100D00004460BDE8F001704702A10DA000F0B6FDFF
:100D1000FEE700000D0A456E74657220486172643A
:100D20004661756C745F48616E646C65722C20530B
:100D3000797374656D2048616C742E0D0A00000093
:100D400025730000FEE7704710B4C27801784FF0B9
:100D50000F0C012322B3184A126801F1E02102F4BA
:100D6000E062C2F5E062120AC2F104042CFA02F257
:100D700090F801C00CFA04FC8478224042EA0C028C
:100D8000120181F80024007800F01F0103FA01F13C
:100D90004009800000F1E020C0F8001110BC70474D
:100DA00001F01F0003FA00F04909890001F1E02178
:100DB000C1F8800110BC70470CED00E0034940F021
:100DC000FD7040F080600860704700000CED00E0AE
:100DD000044A0029516914BF084321EA0000506108
:100DE0007047000000100240044A0029D16914BF76
:100DF000084321EA0000D061704700000010024063
:100E0000044A0029116914BF084321EA0000106157
:100E10007047000000100240044A0029916914BF85
:100E2000084321EA00009061704700000010024072
:100E3000044A0029D16814BF084321EA0000D060A9
:100E40007047000000100240254910B44A6812F0B3
:100E50000C03244A18BF042B01D0082B01D00260D8
:100E600015E04A684B6802F470124FF0020C13F45C
:100E7000803F0CEB924203D04B6813F4003F03D049
:100E8000194B5A43026002E0164B5A4302604A680B
:100E90000F2303EA1212154B9A5CD0F800C02CFA0B
:100EA00002F24260D1F804C0072404EA1C2C13F8B3
:100EB0000CC022FA0CFCC0F808C0D1F804C004EA47
:100EC000DC2C13F80C30DA40C2604968032303EAD3
:100ED0009131074B595CB2FBF1F1016110BC7047D5
:100EE0000010024000127A0000093D0014000020AA
:100EF00010000020374882B0016841F00101016014
:100F00004168354A11404160016821F4102121F007
:100F100080710160016821F480210160416821F441
:100F2000FE0141604FF41F01816000220192009296
:100F3000016841F480310160016801F400310091E1
:100F40000199491C0191009919B90199B1F5A06F56
:100F5000F2D1016811F4003F08BF009233D00121A3
:100F600000911E490A6842F010020A600A6822F0E5
:100F700003020A600A6842F002020A6041684160A6
:100F800041684160416841F480614160416821F4F9
:100F90007C114160416841F4E8114160016841F011
:100FA00080710160016811F0007FFBD0416821F081
:100FB00003014160416841F002014160416801F074
:100FC0000C010829FAD106494FF00060086002B010
:100FD00070470000001002400000FFF800200240AF
:100FE00008ED00E04FF08040018A018A21F0010104
:100FF0000182704703480188018821F001010180C6
:10100000704700001008004070B5174C40F22441B2
:10101000204600F020F9012818BF70BD13A000F091
:101020002DFC2088154C208015480088154D208007
:1010300000212846FFF7ECFC2846FFF775FDC0F1BC
:10104000800081B2A21C2180002088548021284683
:10105000FFF7AFFD01212846FFF7DAFCBDE870403D
:10106000094800F0D5BE00000038014055534152F8
:10107000545F49545F49444C45310000182B00200F
:1010800004380140580002402400002070B5174C7D
:1010900040F22441204600F0DEF8012818BF70BD60
:1010A00013A000F0EBFB2088154C20801548008829
:1010B0002080154D00212846FFF7AAFC2846FFF79F
:1010C00033FDC0F18000208021880020A21C8854BC
:1010D00080212846FFF76DFD01212846FFF798FC87
:1010E000BDE87040094800F093BE00000044004095
:1010F00055534152545F49545F49444C45320000B6
:101100009A2B0020044400406C0002402C00002078
:1011100070B5154C40F22441204600F09CF801289F
:1011200018BF70BD2088114C208011480088114DD7
:10113000208000212846FFF76BFC2846FFF7F4FCCF
:10114000C0F1800081B2A21C21800020885480213F
:101150002846FFF72EFD01212846FFF759FCBDE880
:101160007040054800F054BE004800401C2C002090
:10117000044800403000024034000020C943018090
:1011800070470029818914BF41F4005121F40051B6
:1011900081817047002A828A14BF114322EA01012B
:1011A0008182704710B5A0F18041B1F59C311FD00C
:1011B000A0F18041B1F5884125D0A0F18041B1F581
:1011C00090412BD0A0F18041B1F5984131D0A0F1F0
:1011D0008041B1F5A04118BF10BD01210805FFF7FE
:1011E0000FFEBDE8104000214FF48010FFF708BE4D
:1011F00001218803FFF71CFEBDE8104000214FF4D9
:101200008040FFF715BE01214804FFF7F9FDBDE856
:10121000104000214FF40030FFF7F2BD0121880497
:10122000FFF7EEFDBDE8104000214FF48020FFF7EE
:10123000E7BD0121C804FFF7E3FDBDE81040002130
:101240004FF40020FFF7DCBD0246002012880A425E
:1012500018BF0120704710B401F01F0201240023C1
:10126000C1F3421C04FA02F2BCF1010F04BFB0F852
:101270000CC00CEA020208D0BCF1020F0CBFB0F89F
:1012800010C0B0F814C00CEA0202090A008804FA7F
:1012900001F10840002A1CBF00280123184610BC99
:1012A0007047C1F3421301F01F014FF0010C0CFA1B
:1012B00001F1012B08BF0C3003D0022B0CBF103002
:1012C0001430002A026814BF114322EA01010160B0
:1012D0007047000030B50446008A85B00D464CF6D4
:1012E000FF710840E98808432082A0894EF6F31177
:1012F0000840A9882A8911436A8910430843A081BC
:10130000A08A4FF6FF410840A9890843A082684699
:10131000FFF79AFDA4F18040B0F59C300CBF039814
:101320000298A18911F4004F00EBC00101EB0010FD
:10133000296814BF49008900B0FBF1F0114A6FF031
:10134000180CA2FB0031490909010B0903FB0CF33E
:1013500000EB8300A38913F4004F4FF0320314BF56
:1013600003EBC00003EB0010A2FB00204FEA50107B
:1013700014BF00F0070000F00F000843208105B003
:1013800030BD00001F85EB51C1F30801818070471B
:101390002DE9FF4F8DB00446FFF704FF1825032603
:1013A000DFF8E8B3FA4FDFF8EC83A4F180404FF4A4
:1013B000806A4FF04809B0F59C3008D0BC4221D17A
:1013C00001210420FFF728FD012148043FE001210D
:1013D0000420FFF721FD01218803FFF71DFD4FF4D5
:1013E0000070ADF800008DF803508DF8026069467A
:1013F0005846FFF732FCADF800A08DF8039069461F
:10140000584650E0444506D101210820FFF704FD6D
:10141000012188041BE0A4F18040B0F5984005D07C
:10142000A4F18041B1F5A04107D012E001211020C4
:10143000FFF7F2FC0121C80409E001211020FFF7A9
:10144000EBFC01212020FFF7E7FC01210805FFF755
:10145000CBFCBC4212D10420ADF800008DF8035043
:101460008DF8026069465846FFF7F7FB0820ADF893
:1014700000008DF803906946584614E04FF4006B65
:10148000444513D1ADF800A08DF80350C24D8DF83E
:10149000026069462846FFF7E0FBADF800B08DF822
:1014A000039069462846FFF7D8FB30E0BB48A4F11B
:1014B0008041B1F5984105D0A4F18042B2F5A04237
:1014C00011D024E0ADF800A08DF803508DF8026033
:1014D00069460546FFF7C1FBADF800B08DF80390F3
:1014E00069462846DFE74FF48051ADF800108DF8CB
:1014F00003508DF802606946FFF7AFFB0420ADF89A
:1015000000008DF803906946A548FFF7A6FBDDE9CA
:101510000E0A00250090DDF84090ADF808500C2030
:10152000ADF80450ADF80A00ADF80650ADF80C5017
:1015300069462046FFF7CEFE9A4EB44208BF2520EA
:1015400003D0BC4208BF262002D18DF8100004E071
:10155000444504BF27208DF810008DF811A08DF8A8
:10156000129001208DF8130004A8FFF7EDFB202155
:101570002046FFF703FE002240F225512046FFF7E8
:1015800090FE40212046FFF7F9FD002240F226613F
:101590002046FFF786FE10212046FFF7EFFD0122CF
:1015A00040F224412046FFF77CFE01212046FFF750
:1015B000E8FD01210846FFF70BFC01210220FFF79F
:1015C00007FC6846FFF7F7FADFF8DCB1DFF8DCA1CB
:1015D000B44208D100215846FFF71AFA5846FFF7DF
:1015E00021FA734809E0BC4209D100215046FFF7B7
:1015F0000FFA5046FFF716FA6E4800900CE044458B
:101600000AD1DFF8B49100214846FFF701FA4846B5
:10161000FFF708FA694800901020CDE901504FF01B
:101620008009CDE9045940020395CDE9085006959B
:1016300007950A95B44205D169465846FFF790FAD6
:101640000E2006E0BC4207D169465046FFF788FAF3
:1016500011208DF82C0008E0444506D16946564813
:10166000FFF77EFA0C208DF82C0006208DF82D0057
:101670008DF82E5001208DF82F000BA8FFF764FB8A
:10168000B4420BD14FF48050FFF7AAF90022022197
:101690005846FFF75DFA002158460CE0BC420DD1D8
:1016A0004FF08070FFF79CF9002202215046FFF7AF
:1016B0004FFA00215046FFF7ABF90FE044450DD13A
:1016C0001020FFF78DF9DFF8F0A00022022150462C
:1016D000FFF73EFA00215046FFF79AF9012108462C
:1016E000FFF776FB01210220FFF772FB6846FFF748
:1016F00062FADFF8CCA0DFF8CCB0B4420BD1002105
:101700005046FFF785F95046FFF78CF928480090BE
:101710002D4801901AE0BC420BD100215846FFF73A
:1017200077F95846FFF77EF9224800902748019044
:101730000CE044450AD100212548FFF769F9244807
:10174000FFF770F91D48009022480190CDE9025939
:10175000CDE904594FF40050CDE90850069507959E
:101760000A95B44206D169465046FFF7F9F90121BE
:10177000504607E0BC422FD169465846FFF7F0F9C2
:1017800001215846FFF744F931E00000000801400C
:101790000044004000480040000C0140001001409F
:1017A0000014014000380140440002408000024023
:1017B00004380140044400401C000240044800403A
:1017C000580002406C0002401A2B00209C2B002085
:1017D000300002401E2C0020444508D10A4D6946C5
:1017E0002846FFF7BDF901212846FFF711F901222C
:1017F00080212046FFF7CEFC11B02046BDE8F04F17
:1018000001224021FFF7C6BC3000024000B585B080
:101810000C4A00210C48FEF7A5FF0A480DF1040E02
:10182000C17B90F812C0437C027C8EE80E10817B55
:101830000091437B027BC17A04A000F01FF805B041
:1018400000BD0000B42C00200064004063387436F2
:101850005F63616E3A2532782C2532782C253278F8
:101860002C2532782C2532782C2532782C2532788C
:101870002C2532780D000000FEE700000FB4054B68
:1018800010B503A9044A029800F040F810BC5DF8B6
:1018900014FB0000ED1D000858000020002101602D
:1018A0004160704702E008C8121F08C1002AFAD13F
:1018B00070477047002001E001C1121F002AFBD1D0
:1018C000704712F0004F1FBF22F00042D21D22F0DD
:1018D0000703102202BFD21C22F003030C221BB10B
:1018E00003EB020C8C4501D90120704702440144EE
:1018F0008360C0E90021C91AD01888429CBF1060DB
:101900000246F9D900201060704700002DE9FF4F12
:101910008DB00F460546002606E025280BD0DDE9F0
:101920000F1290476D1C761C28780028F5D111B055
:101930003046BDE8F08F0024A246A1460122EC49C2
:1019400000E0044315F8013F203B02FA03F008428F
:10195000F7D128782A2810D06FF02F022878A0F12C
:101960003001092914D80AEB8A0102EB410144F045
:10197000020400EB010A6D1CF0E701CF5FEA000AE8
:1019800003D544F40054CAF1000A44F002046D1C6B
:1019900028782E2817D115F8010F44F004042A28BE
:1019A0000ED06FF02F022878A0F1300109290AD853
:1019B00009EB890102EB410100EB01096D1CF2E723
:1019C00057F8049B6D1C28786C280FD006DC4C2837
:1019D00017D068280DD06A2814D104E0742810D0DC
:1019E0007A280FD10DE044F400140AE044F4801486
:1019F00001E044F440146978814202D104F5801476
:101A00006D1C6D1C2A786E2A1FD00CDC632A31D025
:101A100004DC002A8BD0582A11D1A3E0642A68D0B4
:101A2000692A0CD165E0732A2ED004DC6F2A73D0AA
:101A3000702A04D19BE0752A6FD0782A6ED01046A8
:101A4000DDE90F129047761C50E1C4F302500228E2
:101A500006D0032809D0042801CF09D0066045E14B
:101A600001CFF117C0E9006140E101CF06803DE1FF
:101A700006703BE117F8040B8DF8000000208DF88C
:101A80000100EB46012003E057F804BB4FF0FF30A4
:101A900061074FF0000102D40DE008F10101884612
:101AA00049450FDA8045F8DB1BF808100029F4D10E
:101AB00008E008F1010188468142FADB1BF80810B2
:101AC0000029F6D1DDE90F23AAEB08008146214663
:101AD00000F036F9304400EB080604E0DDE90F12AF
:101AE0001BF8010B9047B8F10108F7D22146484690
:101AF000F7E00A21C4F302534FF0000B0891022BC8
:101B000004D001CFC117032B09D00AE0FF1D27F035
:101B10000707F7E8020108E032E01FE020E000B22A
:101B2000C117042B01D140B2C117031E71F100038C
:101B300007DA4FF0000CD0EB0C006CEB01012D2309
:101B400002E0230504D52B238DF82430012303E084
:101B5000E30701D02023F7E7984658E00A2110E078
:101B600010210EE010204FF0000B08900CE0102127
:101B70004FF0000B44F004044FF00809089103E013
:101B800008214FF0000B0891C4F30253022B04D03C
:101B900001CF0021032B06D006E0FF1D27F0070729
:101BA000F7E8020103E080B2042B00D1C0B24FF08D
:101BB000000823072BD5702A07D0DDF820C08CF051
:101BC000100C5CEA0B0C05D00EE040238DF824309D
:101BD000012308E050EA010306D030238DF82430B9
:101BE0008DF8252002239846DDF820C08CF0080CE3
:101BF0005CEA0B0C0BD150EA010301D1630706D557
:101C000030238DF824304FF00108A9F10109582A3A
:101C100004D038A20B9208AA0A920BE03AA2F9E784
:101C20005B46089AFEF728FB0B9B9B5C0A9A521EA8
:101C30000A92137050EA0102F2D10A98ADEB00004B
:101C400000F1200B600702D524F4803401E04FF04E
:101C50000109D94502DDA9EB0B0000E0002000EBF3
:101C60000B0141440890AAEB010AE00306D4DDE928
:101C70000F232146504600F063F806444FF0000958
:101C800008E009A911F80900DDE90F12904709F1F0
:101C90000109761CC145F4DBE0030CD5DDE90F2317
:101CA0002146504600F04CF8064404E0DDE90F12EE
:101CB00030209047761C0899481E08900029F5DCD2
:101CC00008E00A980A990078491C0A91DDE90F1288
:101CD0009047761CBBF10001ABF1010BF1DC214612
:101CE0005046DDE90F2300F019F806446D1C1BE691
:101CF00009280100303132333435363738396162E2
:101D000063646566000000003031323334353637A5
:101D10003839414243444546000000002DE9F04176
:101D2000044600251E461746880404D405E03946BB
:101D30002020B0476D1C641EF9D52846BDE8F0810F
:101D40002DE9F041044600251E469046C80301D502
:101D5000302700E02027880404D505E041463846B6
:101D6000B0476D1C641EF9D52846BDE8F08100001F
:101D70000648016841F0807101600548002141601A
:101D8000016841F00101016070470000FCED00E0D6
:101D9000001000E010B501210220FEF7BDFD4FF458
:101DA0004070FFF70BF8FFF7E3FF10235A020A49D0
:101DB0001846FEF73FFF012303224FF4E1310748A5
:101DC000FFF7E6FA06A0FFF759FDFEF71FFBBDE897
:101DD00010400548FEF720BD0010014000380140CA
:101DE000435254360D0A0000B42C002070B505464D
:101DF0000648E9B20446FFF7C7FA80212046FFF7FC
:101E000023FA0028F9D0284670BD000000380140B0
:101E100010B5002100F01CFABDE8104000F008BA2F
:101E2000FFF7B8FFFEF772F9034A04490448DFF8E8
:101E300014C000DFFEE70000600800200A00080070
:101E4000550300080D240008FEE7FEE70748016877
:101E50004FF0E020416100218161072101610448C8
:101E6000016841F07F410160401770473827000842
:101E700020ED00E07047704750E8001F31B10B685B
:101E800040E80032002AF7D108467047BFF32F8F91
:101E9000FAE70000002808BF704770B50D464FF6FE
:101EA000FF71084C884204D222680146104600F0B7
:101EB000FDF920684570044800F0D1F80221606007
:101EC000417070BD44000020C82C00207047000005
:101ED0002D4BD868002808BF70472DE9F001988A7B
:101EE0000025401EDFF8A48098820126988A0028E9
:101EF0001CBFBDE8F0017047D968002904BFBDE8E8
:101F0000F0017047886838B14A684260486810B18B
:101F10008A6882604D608D60DFF874C000279CF88D
:101F2000000002281ABF01280328012791F8024067
:101F3000DCF8040020B18278A24228BF8446F7D2A0
:101F40004860CCF80410002F04BF08468D6005D00F
:101F500000281CBF0A468160C1F808C0888A9882A0
:101F60004878042804D1C88AB8F800201044888230
:101F70004E7081F82560C868D860C86800281CBF0A
:101F80000361CD600D61B1E7E02C00204C00002022
:101F9000C82C00202DE9F041104E04004FF002053E
:101FA0000DD03068A1780127827891420ED900F0D7
:101FB000D3F93068477074606570BDE8F0810848F7
:101FC00000F04DF870604570BDE8F0816770214603
:101FD000BDE8F041024800F09DB900004400002037
:101FE000C82C00200321FFF755BF000010B50446A0
:101FF000008B084320836278618B062A18D0052A5B
:1020000018BF10BD084208BF10BD01EA000262837C
:1020100088432083204600F0A9F901206070022047
:1020200084F825002146BDE81040034800F072B94D
:1020300031EA0002ECD010BDC82C0020814224BF40
:1020400042688A429CBF0120704700BF50E8002FC1
:102050000A6040E80012002AF8D1002070470146CB
:10206000406842684A600B780022022B18BF012B9F
:1020700003D0032B1CBF426070474368002B1CBF7A
:10208000996042608260704770470000028D92083C
:1020900003D1134A1288C2F38D02036B03EB820251
:1020A00012F0040F18BF121F4FF0807342E90213A1
:1020B000002342F8403D53609360D3601361536145
:1020C0009361D361136253629362D3621363536368
:1020D000C3691362C2624163006B024901607047C9
:1020E00034270008A52E5AE22DE9F0410446406845
:1020F0008846002704F10C0528B1607802281DD01D
:10210000A089002837D0A089E189884248D2208957
:1021100004EB8000C0F81080D5E85F0F401C81B24E
:10212000C5E8501F0028F7D12089401C80B22081CB
:10213000E189884208BF2781BDE8F08120466770A9
:10214000FFF78DFF80F825702189064604EB810199
:10215000C0690861D5E85F0F401C81B2C5E8501F17
:102160000028F7D12089401C80B22081E189884273
:1021700008BF278109E02046FFF771FF0646C069C6
:102180000421C0F8008086F82510012070703046C8
:1021900000F0ECF83146BDE8F041044800F0BAB870
:1021A000BDE8F0410320FFF74FBE0000C82C00201F
:1021B00070B51C48012102685170006800F0CCF82D
:1021C000194DA8786E78002818BFAC1C19D000BF34
:1021D00005EBC60148680278DAB1012A1ED000F08A
:1021E000E1F8E878761C864208BF0026D4E84F0F55
:1021F000401EC1B2C4E8401F0028F7D1A8780028CB
:10220000E6D16E700948FFF72AFFBDE8704000F084
:10221000F5B8098989B2FFF7E9FEE2E78968FFF7B7
:1022200063FFDEE744000020402A0020C82C002085
:102230000548017800291EBF0121417070474FF009
:1022400080500249086070473C00002004ED00E027
:10225000F0B4154DAB1CEC784FEA050CD3E84F2FCA
:10226000A2420ED1BFF32F8FEB78934281BF05EBD3
:10227000C202C2E90101F0BC70470220F0BCFFF7C6
:10228000E3BD521CD6B2C3E8426F002AE6D100BFBC
:10229000DCE84F2F531CA34208BF0023DEB2CCE87A
:1022A000436F002BF4D1DFE7402A0020184AD3689F
:1022B00013B313469B8A8B420BD204E0D2F80CC0B6
:1022C000BCF1000F18D0D268B2F814C063448B423E
:1022D000F4D3D2F80CC0C0F80CC0D0600261D0F8C2
:1022E0000CC0BCF1000F18BFCCF81000591A818245
:1022F000908A401A908270474FF0000CC0F80CC0D2
:10230000D060C91A02619182A0F814C07047000021
:10231000E02C002010B402784FF0000C022A1ABF03
:10232000012A032A4FF0010C8B78426822B194787D
:102330009C4228BF1046F8D24A604160BCF1000FB1
:1023400001BF0020886010BC7047002A18BF916050
:10235000886010BC7047000003494A684260002250
:102360008260486070470000C82C00200169002985
:1023700008BF7047C268CA60C3680022002B08BF4C
:102380008A8207D08B8AB0F814C063448B82C368FA
:102390001961C2600261704702220270002242602D
:1023A0004180704710B5416879B1FFF758FE044687
:1023B000FFF7DCFF01206070032084F82500214630
:1023C000BDE810400348FFF7A5BF4188491C418084
:1023D00010BD0000C82C002006480068D0E90B1092
:1023E000814204D300680449884208BF7047012035
:1023F000FFF72ABD44000020A52E5AE2024948609A
:102400000221417070470000440000202DE9F74F81
:10241000DFF85CC190468946BCF800000025C0B1D9
:102420009CF800000023534A10F001001CBF156007
:102430000123BCF8001088420BD200BF591C42F89F
:10244000235042F82150BCF800109B1C801C88428D
:10245000F4D34948382201884848FFF732FA4848FF
:10246000008880B240F00042464801684648FFF7C5
:1024700028FA46480822018845480068FFF721FAF3
:10248000444EFF273446F770358525704FF0010A1A
:1024900084F801A0A57084F824506560A560E5600B
:1024A00025612562A582E5822583658384F8255010
:1024B000DFF8E4B084F826503348FFF7DDFC2063F2
:1024C00059462046FFF7E2FD34480421017045607B
:1024D00033480170C56005618582F06A2030FDF7E0
:1024E0000FFE304831490660022070702E4805709A
:1024F00045700978C170FFF7C7FD2D48016841F4A8
:102500007F0101600068390601EA00202949C043C3
:10251000B0FA80F00968C0F10800C1F302218142DD
:10252000A8BF481C24490A686FF0807303FA00F0C2
:1025300062F317000860FFF789FC20490028086053
:102540000DDB00F1E02181F8007400F01F010AFAB0
:1025500001F14011800000F1E020C0F80011009866
:1025600003B042464946BDE8F04F002300F06AB888
:1025700030270008C42A002048270008601C0020DB
:10258000342700084C270008301E0020522700087E
:102590000C000020F82C00204B1E0008C82C002046
:1025A000E02C002044000020402A00205027000892
:1025B00020ED00E00CED00E01CED00E0400000200C
:1025C0000C4810B50268012151700068FFF7C4FE85
:1025D000FFF77CFC08480168491C0160FFF778FCA4
:1025E00000F00EF80548FFF73AFDBDE81040FFF790
:1025F00005BF0000440000204C000020C82C002033
:1026000070B50E4C2068002808BF70BDA0880C4E25
:10261000401EA0800AE0E888FFF72DFCA888A08073
:102620002868206029463068FFF708FDA088002848
:1026300018BF70BD2568002DEDD170BD5000002081
:102640000C0000202DE9F0411E46904607460C463E
:1026500011F0FF0F08BF4C1C3048FFF70DFC0500C0
:1026600008BFBDE8F081C4F30F20C5F8308028858D
:10267000EE6100262E7001216970AC7085F824404F
:102680006E60AE60EE602E612E62AE82EE822E83B0
:102690006E8385F8256085F8266018B92048FFF715
:1026A000EBFB286339462846FFF7F0FC1D490888F4
:1026B000431C1D48012B1ED90978012401F0010C8F
:1026C0000CF10101012907D900EB840252F8042C16
:1026D00092B1641C8C42F7D30C4699420BD200BFD6
:1026E00000EB840151F8041C31B150F8241091B171
:1026F000A41C9C42F4D3344600EB840040F8045CF4
:10270000EC702846FFF746FC0848006880F8254032
:102710002046BDE8F081641CEEE70000601C00204C
:10272000301E002030270008C42A0020440000206A
:1027300008000000000406013F190100010000002C
:10274000E803000005000000CC010000100C0000B0
:102750001000340049000400782700080000002021
:102760005C000000A4180008D42700085C000020CA
:10277000D4300000B4180008000000000000000081
:1027800000000000E42A0020020406080000000007
:102790000102030401020304060708090000000007
:1027A0000000000000000000000000000000000029
:1027B0000000000000000000000000000000000019
:1027C0000000000000000000000000000000000009
:0427D0000000000005
:04000005080000ED02
:00000001FF
