:020000040800F2
:10000000A0080020B9080008C9080008CB080008AB
:10001000CD080008CF080008D10800080000000043
:10002000000000000000000000000000D3080008ED
:10003000D508000800000000D70800089F0100084C
:10004000090900080D090008110900081509000830
:10005000190900081D0900082109000825090008E0
:10006000290900082D090008310900083509000890
:10007000390900083D090008410900084509000840
:10008000490900084D0900085109000855090008F0
:10009000590900085D0900086109000865090008A0
:1000A000690900086D090008710900087509000850
:1000B000A70100087D0900088109000885090008DA
:1000C000890900088D0900089109000895090008B0
:1000D00099090008AD060008B7060008A509000840
:1000E000A9090008AD090008B109000810B5DFF83A
:1000F0006801006800280CD0DFF85C010068401E31
:10010000DFF854110860002803D10120DFF84C11FA
:100110000870002409E0DFF83C01E4B20C2101FB87
:1001200004F1084400F02BF8641CE4B2042CF2DB68
:10013000DFF82C010068401CDFF824110860DFF8AC
:10014000200100687FF00041884203D10020DFF8E1
:100150001011086000F09FF8DFF808010078401CDB
:10016000DFF800110870DFF8FC0000780A2805DBD2
:100170000020DFF8F010087000F08CF810BD416826
:1001800000290BD04168491E4160002906D1012198
:1001900041700178012901D181684160704780B5C3
:1001A000FFF7A4FF01BD80B502215FF0804000F0A1
:1001B0007FF800280DD002215FF0804000F08AF81F
:1001C000002202215FF0804000F066F826480068B7
:1001D000804704215FF0804000F06AF800280DD0CD
:1001E00004215FF0804000F075F8002204215FF0E8
:1001F000804000F051F81D480068804708215FF0FA
:10020000804000F055F800280DD008215FF08040B4
:1002100000F060F8002208215FF0804000F03CF818
:1002200013480068804710215FF0804000F040F8DC
:1002300000280DD010215FF0804000F04BF8002224
:1002400010215FF0804000F027F80A4800688047DE
:1002500001BD000004000020840000209C0000205C
:10026000880000209D0000208C00002090000020CD
:10027000940000209800002080B500F02FF8102393
:100280004FF400520249102000F05CF801BD00005C
:100290000010014070477047D2B2002A03D0828913
:1002A0001143818103E0828932EA01018181704733
:1002B000002200220022028A0A408089014092B274
:1002C000002A04D089B2002901D0012000E00020DA
:1002D000C0B2704789B2C9430182704714480068B0
:1002E00050F08070124908600020124908601248DE
:1002F000006850F0010010490860704780B54FF465
:100300007A71484300F001F801BD10B409490B6847
:1003100000220A4909680A4CB1FBF4F1484302E0A3
:1003200004490A68D21A8242FAD310BC704700000E
:10033000FCED00E0041000E0001000E000000020F0
:1003400040420F007CB50C0015001E00012100F09A
:100350000DF8ADF8005003208DF802008DF8036011
:100360006946200000F014F873BD0000C9B20029EE
:1003700005D00649096808430449086005E00349B7
:10038000096831EA0000014908607047181002400E
:1003900070B4002200220022002200220022CB782A
:1003A00013F00F03CA78D20601D58A7813430A786E
:1003B000120621D0066800241BE0CA78482A17D10B
:1003C0000122A240026113E00125A5400A882A40CB
:1003D000AA420DD1A2000F259540AE4313FA02F2B6
:1003E00032431600CA78282AE7D10122A24042618E
:1003F000641C082CE8D306600A88B2F5807F27DBEE
:100400004568002421E0012214F1080612FA06F6DC
:100410000A883240B24217D1A2000F269640B54357
:1004200013FA02F22A431500CA78282A04D10126B9
:1004300014F1080296404661CA78482A04D1012680
:1004400014F1080296400661641C082CDBD3456059
:1004500070BC704789B20161704789B241617047D1
:1004600080B54E48006850F001004C4908604C4887
:1004700001684C4801404A480160484801684A48C0
:100480000140464801604548006830F480204349F7
:1004900008604348006830F4FE00414908605FF49A
:1004A0001F004249086000F005F85FF00060404915
:1004B000086001BD80B500F001F801BD82B00020E8
:1004C0000190002000903548006850F48030334996
:1004D00008603248006810F4003000900198401C19
:1004E00001900098002803D10198B0F5A06FF0D1D9
:1004F0002A480068800302D50120009001E0002016
:1005000000900098012847D12A48006850F0100058
:10051000284908602748006880088000254908604D
:100520002448006850F00200224908601C48006816
:100530001B4908601A480068194908601848006893
:1005400050F48060164908601548006830F47C104B
:10055000134908601248006850F4E8101049086018
:100560000E48006850F080700C4908600B48006825
:100570008001FBD50A4800688008800008490860AF
:100580000748006850F00200054908600448006808
:1005900010F00C000828F9D102B07047001002409A
:1005A000041002400000FFF8FFFFF6FE08100240B2
:1005B00008ED00E00020024010B5040040F2255193
:1005C000206800F0B2F800281BD0206800F0A9F8DD
:1005D000A168E28A8854E18A491CE182E28989B2F1
:1005E000914201D30021E182618BE289914202D2E2
:1005F000618B491C6183616A002902D0C0B2616AC3
:10060000884740F22771206800F08FF8002823D037
:10061000A08A00280CD1002240F22771206800F047
:1006200053F8012240F22661206800F04DF83CE0CA
:100630006068618A415C89B2206800F06EF8608A67
:10064000401C6082A18980B2884201D30020608270
:10065000A08A401EA08228E040F22661206800F0B7
:1006600064F8002821D0A08A00280BD1002240F293
:100670002661206800F028F8206A002815D0206A3A
:10068000804712E06068618A415C89B2206800F0AE
:1006900044F8608A401C6082A18980B2884201D3FC
:1006A00000206082A08A401EA08210BD80B5044850
:1006B000FFF782FF01BD80B50248FFF77DFF01BD56
:1006C000340000205C00002010B40023002300232D
:1006D000002389B240F66A1399420B00DBB25B0932
:1006E000DBB289B211F01F01012414FA01F1012BD0
:1006F00001D10C3004E0022B01D1103000E01430A5
:10070000D2B2002A03D002681143016003E00268FC
:1007100032EA0101016010BC7047C905C90D818032
:1007200070478088C005C00D704710B400220022B9
:100730000022002289B240F66A1291420B00DBB21D
:100740005B09DBB289B211F01F02012414FA02F234
:10075000012B02D183891A4006E0022B02D1038AC1
:100760001A4001E0838A1A4089B2090A89B201233A
:1007700013FA01F100880140002A03D0002901D0BA
:10078000012000E00020C0B210BC704719E050F812
:10079000042BD30744BFA9F101039A18091F0023B2
:1007A000042942F8043BF9D25FEA817C134604D560
:1007B0004FF0000CA2F800C09B1CC90744BF0021E9
:1007C000197050F8041B0029E1D1704780B5FFF77C
:1007D00053FD6420FFF792FD4FF400510548FFF7E9
:1007E00039FE6420FFF78AFD4FF400510148FFF7FE
:1007F00034FEEEE70010014010B450F8041B79B14C
:100800000268436802440830DC0744BFA9F10104D0
:10081000E31852F8044B43F8044B091FF9D1ECE7F5
:1008200010BC704710B5074979441831064C7C4418
:10083000163404E00A68081D114488470146A142A5
:10084000F8D110BD080000002800000041FFFFFFA4
:100850009C00000004000020000000009DFFFFFF3E
:100860000400000050010000000000200000000013
:1008700000F00DF8002801D0FFF7D4FFAFF300809F
:100880000020AFF30080FFF7A1FF00F002F8012085
:10089000704700F001B800000746384600F002F843
:1008A000FBE7000080B5AFF30080024A110018207A
:1008B000ABBEFBE726000200014880470148004725
:1008C00061040008D90800087047FEE7FEE7FEE76C
:1008D000FEE7704770477047AFF30080AFF30080CA
:1008E000FFF7C6FFFFF7F0BFFFF7EFBFFFF7EEBF61
:1008F000FFF7EDBFFFF7ECBFFFF7EBBFFFF7EABF76
:10090000FFF7E9BFFFF74BBCFFF7FEBFFFF7FEBFE6
:10091000FFF7FEBFFFF7FEBFFFF7FEBFFFF7FEBF0B
:10092000FFF7FEBFFFF7FEBFFFF7FEBFFFF7FEBFFB
:10093000FFF7FEBFFFF7FEBFFFF7FEBFFFF7FEBFEB
:10094000FFF7FEBFFFF7FEBFFFF7FEBFFFF7FEBFDB
:10095000FFF7FEBFFFF7FEBFFFF7FEBFFFF7FEBFCB
:10096000FFF7FEBFFFF7FEBFFFF7FEBFFFF7FEBFBB
:10097000FFF7FEBFFFF7FEBFFFF715BCFFF7FEBF97
:10098000FFF7FEBFFFF7FEBFFFF7FEBFFFF7FEBF9B
:10099000FFF7FEBFFFF7FEBFFFF7FEBFFFF786BE04
:1009A000FFF789BEFFF7FEBFFFF7FEBFFFF7FEBFF1
:0809B000FFF7FEBF00A24A049C
:04000005080008D90E
:00000001FF
